{
  "address": "0x7f284B6a1aCE129d6fB0686673302cFbE0D24a23",
  "abi": [
    {
      "inputs": [
        {
          "internalType": "address",
          "name": "exampleExternalContractAddress",
          "type": "address"
        }
      ],
      "stateMutability": "nonpayable",
      "type": "constructor"
    },
    {
      "anonymous": false,
      "inputs": [
        {
          "indexed": true,
          "internalType": "address",
          "name": "from",
          "type": "address"
        },
        {
          "indexed": false,
          "internalType": "uint256",
          "name": "amount",
          "type": "uint256"
        }
      ],
      "name": "Stake",
      "type": "event"
    },
    {
      "anonymous": false,
      "inputs": [
        {
          "indexed": true,
          "internalType": "address",
          "name": "from",
          "type": "address"
        },
        {
          "indexed": false,
          "internalType": "uint256",
          "name": "amount",
          "type": "uint256"
        }
      ],
      "name": "Withdraw",
      "type": "event"
    },
    {
      "inputs": [
        {
          "internalType": "address",
          "name": "",
          "type": "address"
        }
      ],
      "name": "balances",
      "outputs": [
        {
          "internalType": "uint256",
          "name": "",
          "type": "uint256"
        }
      ],
      "stateMutability": "view",
      "type": "function"
    },
    {
      "inputs": [],
      "name": "deadline",
      "outputs": [
        {
          "internalType": "uint256",
          "name": "",
          "type": "uint256"
        }
      ],
      "stateMutability": "view",
      "type": "function"
    },
    {
      "inputs": [],
      "name": "exampleExternalContract",
      "outputs": [
        {
          "internalType": "contract ExampleExternalContract",
          "name": "",
          "type": "address"
        }
      ],
      "stateMutability": "view",
      "type": "function"
    },
    {
      "inputs": [],
      "name": "execute",
      "outputs": [],
      "stateMutability": "nonpayable",
      "type": "function"
    },
    {
      "inputs": [],
      "name": "minStake",
      "outputs": [
        {
          "internalType": "uint256",
          "name": "",
          "type": "uint256"
        }
      ],
      "stateMutability": "view",
      "type": "function"
    },
    {
      "inputs": [],
      "name": "openForWithdrawal",
      "outputs": [
        {
          "internalType": "bool",
          "name": "",
          "type": "bool"
        }
      ],
      "stateMutability": "view",
      "type": "function"
    },
    {
      "inputs": [],
      "name": "stake",
      "outputs": [],
      "stateMutability": "payable",
      "type": "function"
    },
    {
      "inputs": [],
      "name": "threshold",
      "outputs": [
        {
          "internalType": "uint256",
          "name": "",
          "type": "uint256"
        }
      ],
      "stateMutability": "view",
      "type": "function"
    },
    {
      "inputs": [],
      "name": "timeLeft",
      "outputs": [
        {
          "internalType": "uint256",
          "name": "",
          "type": "uint256"
        }
      ],
      "stateMutability": "view",
      "type": "function"
    },
    {
      "inputs": [],
      "name": "withdraw",
      "outputs": [],
      "stateMutability": "nonpayable",
      "type": "function"
    },
    {
      "stateMutability": "payable",
      "type": "receive"
    }
  ],
  "transactionHash": "0xd8b3f7be756acf3759362b41be47370a8c425e3a8415c5df371e06086156c62c",
  "args": [
    "0xA9E0FcE05Aa9FF90C4571FBAabAE5A1063c0aAe2"
  ],
  "numDeployments": 1,
  "solcInputHash": "af7b11f2ec20d96d7a8a3ecc78efef82",
  "bytecode": "0x60a0604052610011426203f480610092565b60805234801561002057600080fd5b506040516109e83803806109e883398101604081905261003f91610064565b600080546001600160a01b0319166001600160a01b03929092169190911790556100b6565b600060208284031215610075578081fd5b81516001600160a01b038116811461008b578182fd5b9392505050565b600082198211156100b157634e487b7160e01b81526011600452602481fd5b500190565b6080516109026100e660003960008181610110015281816102ed0152818161031f015261062d01526109026000f3fe6080604052600436106100955760003560e01c80633ccfd60b116100595780633ccfd60b1461015557806342cde4e81461016a57806361461954146101865780639f75f2271461019b578063a4778fde146101d357600080fd5b80631300a6d1146100a957806327e235e3146100d157806329dcb0cf146100fe578063375b3c0a146101325780633a4b66f11461014d57600080fd5b366100a4576100a26101fd565b005b600080fd5b3480156100b557600080fd5b506100be6102e9565b6040519081526020015b60405180910390f35b3480156100dd57600080fd5b506100be6100ec3660046107bd565b60016020526000908152604090205481565b34801561010a57600080fd5b506100be7f000000000000000000000000000000000000000000000000000000000000000081565b34801561013e57600080fd5b506100be66038d7ea4c6800081565b6100a26101fd565b34801561016157600080fd5b506100a2610348565b34801561017657600080fd5b506100be670de0b6b3a764000081565b34801561019257600080fd5b506100a261058a565b3480156101a757600080fd5b506000546101bb906001600160a01b031681565b6040516001600160a01b0390911681526020016100c8565b3480156101df57600080fd5b506002546101ed9060ff1681565b60405190151581526020016100c8565b3361023e5760405162461bcd60e51b815260206004820152600c60248201526b5a65726f206164647265737360a01b60448201526064015b60405180910390fd5b66038d7ea4c6800034101561028d5760405162461bcd60e51b815260206004820152601560248201527429ba30b5b29030b6b7bab73a103a37b7903637bb9760591b6044820152606401610235565b33600090815260016020526040812080543492906102ac908490610887565b909155505060405134815233907febedb8b3c678666e7f36970bc8f57abf6d8fa2e828c0da91ea5b75bf68ed101a906020015b60405180910390a2565b60007f00000000000000000000000000000000000000000000000000000000000000004211156103195750600090565b610343427f000000000000000000000000000000000000000000000000000000000000000061089f565b905090565b60008054906101000a90046001600160a01b03166001600160a01b0316639d9a7fe96040518163ffffffff1660e01b815260040160206040518083038186803b15801561039457600080fd5b505afa1580156103a8573d6000803e3d6000fd5b505050506040513d601f19601f820116820180604052508101906103cc91906107eb565b156103e95760405162461bcd60e51b815260040161023590610844565b60025460ff1615156001146104405760405162461bcd60e51b815260206004820152601e60248201527f5769746864726177616c7320617265206e6f7420617661696c61626c652e00006044820152606401610235565b3360009081526001602052604090205461049c5760405162461bcd60e51b815260206004820152601860248201527f596f7520646964206e6f74207374616b652043686965662100000000000000006044820152606401610235565b33600081815260016020526040808220805490839055905190929083908381818185875af1925050503d80600081146104f1576040519150601f19603f3d011682016040523d82523d6000602084013e6104f6565b606091505b50509050806105475760405162461bcd60e51b815260206004820152601e60248201527f45787465726e616c20636f6e74726163742063616c6c206661696c65642e00006044820152606401610235565b6002805460ff1916905560405182815233907f884edad9ce6fa2440d8a54cc123490eb96d2768479d49ff9c7366125a94243649060200160405180910390a25050565b60008054906101000a90046001600160a01b03166001600160a01b0316639d9a7fe96040518163ffffffff1660e01b815260040160206040518083038186803b1580156105d657600080fd5b505afa1580156105ea573d6000803e3d6000fd5b505050506040513d601f19601f8201168201806040525081019061060e91906107eb565b1561062b5760405162461bcd60e51b815260040161023590610844565b7f000000000000000000000000000000000000000000000000000000000000000042116106925760405162461bcd60e51b81526020600482015260156024820152742232b0b23634b732903737ba103932b0b1b432b21760591b6044820152606401610235565b670de0b6b3a7640000471061077c576000805460408051600481526024810182526020810180516001600160e01b031663522e117760e01b17905290516001600160a01b039092169147916106e69161080b565b60006040518083038185875af1925050503d8060008114610723576040519150601f19603f3d011682016040523d82523d6000602084013e610728565b606091505b50509050806107795760405162461bcd60e51b815260206004820152601e60248201527f45787465726e616c20636f6e74726163742063616c6c206661696c65642e00006044820152606401610235565b50565b6002805460ff1916600117905560405133907f884edad9ce6fa2440d8a54cc123490eb96d2768479d49ff9c7366125a9424364906102df9047815260200190565b6000602082840312156107ce578081fd5b81356001600160a01b03811681146107e4578182fd5b9392505050565b6000602082840312156107fc578081fd5b815180151581146107e4578182fd5b60008251815b8181101561082b5760208186018101518583015201610811565b818111156108395782828501525b509190910192915050565b60208082526023908201527f5374616b696e672068617320616c7265616479206265656e20636f6d706c657460408201526232b21760e91b606082015260800190565b6000821982111561089a5761089a6108b6565b500190565b6000828210156108b1576108b16108b6565b500390565b634e487b7160e01b600052601160045260246000fdfea264697066735822122018ac42f48fce5997a0117947e2af814baa2b4309beb284add29777bbfd5a793664736f6c63430008040033",
  "devdoc": {
    "kind": "dev",
    "methods": {},
    "version": 1
  },
  "userdoc": {
    "kind": "user",
    "methods": {},
    "version": 1
  },
  "storageLayout": {
    "storage": [
      {
        "astId": 19,
        "contract": "contracts/Staker.sol:Staker",
        "label": "exampleExternalContract",
        "offset": 0,
        "slot": "0",
        "type": "t_contract(ExampleExternalContract)12"
      },
      {
        "astId": 23,
        "contract": "contracts/Staker.sol:Staker",
        "label": "balances",
        "offset": 0,
        "slot": "1",
        "type": "t_mapping(t_address,t_uint256)"
      },
      {
        "astId": 37,
        "contract": "contracts/Staker.sol:Staker",
        "label": "openForWithdrawal",
        "offset": 0,
        "slot": "2",
        "type": "t_bool"
      }
    ],
    "types": {
      "t_address": {
        "encoding": "inplace",
        "label": "address",
        "numberOfBytes": "20"
      },
      "t_bool": {
        "encoding": "inplace",
        "label": "bool",
        "numberOfBytes": "1"
      },
      "t_contract(ExampleExternalContract)12": {
        "encoding": "inplace",
        "label": "contract ExampleExternalContract",
        "numberOfBytes": "20"
      },
      "t_mapping(t_address,t_uint256)": {
        "encoding": "mapping",
        "key": "t_address",
        "label": "mapping(address => uint256)",
        "numberOfBytes": "32",
        "value": "t_uint256"
      },
      "t_uint256": {
        "encoding": "inplace",
        "label": "uint256",
        "numberOfBytes": "32"
      }
    }
  }
}