{
  "address": "0x4Fbd733f6a57d053BE7889a104eebD71b0967BbE",
  "abi": [
    {
      "inputs": [
        {
          "internalType": "address",
          "name": "exampleExternalContractAddress",
          "type": "address"
        }
      ],
      "stateMutability": "nonpayable",
      "type": "constructor"
    },
    {
      "inputs": [],
      "name": "DeadlineNotReached",
      "type": "error"
    },
    {
      "inputs": [],
      "name": "StakeAmountTooLow",
      "type": "error"
    },
    {
      "inputs": [],
      "name": "ThresholdNotMet",
      "type": "error"
    },
    {
      "inputs": [],
      "name": "YouAreNotAStaker",
      "type": "error"
    },
    {
      "inputs": [],
      "name": "ZeroAddress",
      "type": "error"
    },
    {
      "anonymous": false,
      "inputs": [
        {
          "indexed": true,
          "internalType": "address",
          "name": "from",
          "type": "address"
        },
        {
          "indexed": false,
          "internalType": "uint256",
          "name": "amount",
          "type": "uint256"
        }
      ],
      "name": "Stake",
      "type": "event"
    },
    {
      "anonymous": false,
      "inputs": [
        {
          "indexed": true,
          "internalType": "address",
          "name": "from",
          "type": "address"
        },
        {
          "indexed": false,
          "internalType": "uint256",
          "name": "amount",
          "type": "uint256"
        }
      ],
      "name": "Withdraw",
      "type": "event"
    },
    {
      "inputs": [
        {
          "internalType": "address",
          "name": "",
          "type": "address"
        }
      ],
      "name": "balances",
      "outputs": [
        {
          "internalType": "uint256",
          "name": "",
          "type": "uint256"
        }
      ],
      "stateMutability": "view",
      "type": "function"
    },
    {
      "inputs": [],
      "name": "deadline",
      "outputs": [
        {
          "internalType": "uint256",
          "name": "",
          "type": "uint256"
        }
      ],
      "stateMutability": "view",
      "type": "function"
    },
    {
      "inputs": [],
      "name": "exampleExternalContract",
      "outputs": [
        {
          "internalType": "contract ExampleExternalContract",
          "name": "",
          "type": "address"
        }
      ],
      "stateMutability": "view",
      "type": "function"
    },
    {
      "inputs": [],
      "name": "execute",
      "outputs": [],
      "stateMutability": "nonpayable",
      "type": "function"
    },
    {
      "inputs": [],
      "name": "minStake",
      "outputs": [
        {
          "internalType": "uint256",
          "name": "",
          "type": "uint256"
        }
      ],
      "stateMutability": "view",
      "type": "function"
    },
    {
      "inputs": [],
      "name": "openForWithdraw",
      "outputs": [
        {
          "internalType": "bool",
          "name": "",
          "type": "bool"
        }
      ],
      "stateMutability": "view",
      "type": "function"
    },
    {
      "inputs": [],
      "name": "stake",
      "outputs": [],
      "stateMutability": "payable",
      "type": "function"
    },
    {
      "inputs": [],
      "name": "threshold",
      "outputs": [
        {
          "internalType": "uint256",
          "name": "",
          "type": "uint256"
        }
      ],
      "stateMutability": "view",
      "type": "function"
    },
    {
      "inputs": [],
      "name": "timeLeft",
      "outputs": [
        {
          "internalType": "uint256",
          "name": "",
          "type": "uint256"
        }
      ],
      "stateMutability": "view",
      "type": "function"
    },
    {
      "inputs": [],
      "name": "withdraw",
      "outputs": [],
      "stateMutability": "nonpayable",
      "type": "function"
    },
    {
      "stateMutability": "payable",
      "type": "receive"
    }
  ],
  "transactionHash": "0xec3fe46c911f0cc344849f799938eb1829e43a9c9a3bb586580feff637113de3",
  "args": [
    "0x233e982F1D37596e1E86699166515919f82665bF"
  ],
  "numDeployments": 2,
  "solcInputHash": "295e67c00216ca616bdb05c4008167ce",
  "bytecode": "0x60e0604052670de0b6b3a764000060805266038d7ea4c6800060a052610028426203f4806100a9565b60c05234801561003757600080fd5b50604051610a4e380380610a4e8339810160408190526100569161007b565b600080546001600160a01b0319166001600160a01b03929092169190911790556100cd565b60006020828403121561008c578081fd5b81516001600160a01b03811681146100a2578182fd5b9392505050565b600082198211156100c857634e487b7160e01b81526011600452602481fd5b500190565b60805160a05160c05161092f61011f60003960008181610110015281816102f401528181610325015261063b015260008181610144015261025501526000818161019501526106a3015261092f6000f3fe6080604052600436106100955760003560e01c80633ccfd60b116100595780633ccfd60b1461016e57806342cde4e81461018357806361461954146101b75780639876a643146101cc5780639f75f227146101fd57600080fd5b80631300a6d1146100a957806327e235e3146100d157806329dcb0cf146100fe578063375b3c0a146101325780633a4b66f11461016657600080fd5b366100a4576100a2610235565b005b600080fd5b3480156100b557600080fd5b506100be6102f0565b6040519081526020015b60405180910390f35b3480156100dd57600080fd5b506100be6100ec3660046107ea565b60016020526000908152604090205481565b34801561010a57600080fd5b506100be7f000000000000000000000000000000000000000000000000000000000000000081565b34801561013e57600080fd5b506100be7f000000000000000000000000000000000000000000000000000000000000000081565b6100a2610235565b34801561017a57600080fd5b506100a261034e565b34801561018f57600080fd5b506100be7f000000000000000000000000000000000000000000000000000000000000000081565b3480156101c357600080fd5b506100a2610598565b3480156101d857600080fd5b506000546101ed90600160a01b900460ff1681565b60405190151581526020016100c8565b34801561020957600080fd5b5060005461021d906001600160a01b031681565b6040516001600160a01b0390911681526020016100c8565b336102535760405163d92e233d60e01b815260040160405180910390fd5b7f000000000000000000000000000000000000000000000000000000000000000034101561029457604051631fe91a3f60e11b815260040160405180910390fd5b33600090815260016020526040812080543492906102b39084906108b4565b909155505060405134815233907febedb8b3c678666e7f36970bc8f57abf6d8fa2e828c0da91ea5b75bf68ed101a906020015b60405180910390a2565b60007f0000000000000000000000000000000000000000000000000000000000000000421061031f5750600090565b610349427f00000000000000000000000000000000000000000000000000000000000000006108cc565b905090565b60008054906101000a90046001600160a01b03166001600160a01b0316639d9a7fe96040518163ffffffff1660e01b815260040160206040518083038186803b15801561039a57600080fd5b505afa1580156103ae573d6000803e3d6000fd5b505050506040513d601f19601f820116820180604052508101906103d29190610818565b156103f85760405162461bcd60e51b81526004016103ef90610871565b60405180910390fd5b600054600160a01b900460ff1615156001146104565760405162461bcd60e51b815260206004820152601960248201527f5769746864726177616c7320617265206e6f74206f70656e2e0000000000000060448201526064016103ef565b336000908152600160205260409020546104a75760405162461bcd60e51b81526020600482015260126024820152712cb7ba903234b2103737ba1039ba30b5b29760711b60448201526064016103ef565b33600081815260016020526040808220805490839055905190929083908381818185875af1925050503d80600081146104fc576040519150601f19603f3d011682016040523d82523d6000602084013e610501565b606091505b50509050806105525760405162461bcd60e51b815260206004820152601e60248201527f45787465726e616c20636f6e74726163742063616c6c206661696c65642e000060448201526064016103ef565b6000805460ff60a01b1916905560405182815233907f884edad9ce6fa2440d8a54cc123490eb96d2768479d49ff9c7366125a94243649060200160405180910390a25050565b60008054906101000a90046001600160a01b03166001600160a01b0316639d9a7fe96040518163ffffffff1660e01b815260040160206040518083038186803b1580156105e457600080fd5b505afa1580156105f8573d6000803e3d6000fd5b505050506040513d601f19601f8201168201806040525081019061061c9190610818565b156106395760405162461bcd60e51b81526004016103ef90610871565b7f00000000000000000000000000000000000000000000000000000000000000004210156106a15760405162461bcd60e51b81526020600482015260156024820152742232b0b23634b732903737ba103932b0b1b432b21760591b60448201526064016103ef565b7f000000000000000000000000000000000000000000000000000000000000000047106107a3576000805460408051600481526024810182526020810180516001600160e01b031663522e117760e01b17905290516001600160a01b0390921691479161070d91610838565b60006040518083038185875af1925050503d806000811461074a576040519150601f19603f3d011682016040523d82523d6000602084013e61074f565b606091505b50509050806107a05760405162461bcd60e51b815260206004820152601e60248201527f45787465726e616c20636f6e74726163742063616c6c206661696c65642e000060448201526064016103ef565b50565b6000805460ff60a01b1916600160a01b17905560405133907f884edad9ce6fa2440d8a54cc123490eb96d2768479d49ff9c7366125a9424364906102e69047815260200190565b6000602082840312156107fb578081fd5b81356001600160a01b0381168114610811578182fd5b9392505050565b600060208284031215610829578081fd5b81518015158114610811578182fd5b60008251815b81811015610858576020818601810151858301520161083e565b818111156108665782828501525b509190910192915050565b60208082526023908201527f5374616b696e672068617320616c7265616479206265656e20636f6d706c657460408201526232b21760e91b606082015260800190565b600082198211156108c7576108c76108e3565b500190565b6000828210156108de576108de6108e3565b500390565b634e487b7160e01b600052601160045260246000fdfea26469706673582212206a1b28ab079ab0090a917dad478342c3df31946b75ba08ae373419bd3bf0d4d364736f6c63430008040033",
  "devdoc": {
    "details": "A contract that allows users to stake their ether and, if the threshold is met, sends the ether to an external contract and calls its complete() function. If the threshold is not met, users can withdraw their ether.",
    "kind": "dev",
    "methods": {},
    "title": "Staker",
    "version": 1
  },
  "userdoc": {
    "kind": "user",
    "methods": {},
    "version": 1
  },
  "storageLayout": {
    "storage": [
      {
        "astId": 20,
        "contract": "contracts/Staker.sol:Staker",
        "label": "exampleExternalContract",
        "offset": 0,
        "slot": "0",
        "type": "t_contract(ExampleExternalContract)12"
      },
      {
        "astId": 22,
        "contract": "contracts/Staker.sol:Staker",
        "label": "openForWithdraw",
        "offset": 20,
        "slot": "0",
        "type": "t_bool"
      },
      {
        "astId": 26,
        "contract": "contracts/Staker.sol:Staker",
        "label": "balances",
        "offset": 0,
        "slot": "1",
        "type": "t_mapping(t_address,t_uint256)"
      }
    ],
    "types": {
      "t_address": {
        "encoding": "inplace",
        "label": "address",
        "numberOfBytes": "20"
      },
      "t_bool": {
        "encoding": "inplace",
        "label": "bool",
        "numberOfBytes": "1"
      },
      "t_contract(ExampleExternalContract)12": {
        "encoding": "inplace",
        "label": "contract ExampleExternalContract",
        "numberOfBytes": "20"
      },
      "t_mapping(t_address,t_uint256)": {
        "encoding": "mapping",
        "key": "t_address",
        "label": "mapping(address => uint256)",
        "numberOfBytes": "32",
        "value": "t_uint256"
      },
      "t_uint256": {
        "encoding": "inplace",
        "label": "uint256",
        "numberOfBytes": "32"
      }
    }
  }
}