{
  "address": "0x2DE086EDeeB9Afb785f890F673F964568803Ce2d",
  "abi": [
    {
      "anonymous": false,
      "inputs": [
        {
          "indexed": false,
          "internalType": "address",
          "name": "",
          "type": "address"
        }
      ],
      "name": "Challenged",
      "type": "event"
    },
    {
      "anonymous": false,
      "inputs": [
        {
          "indexed": false,
          "internalType": "address",
          "name": "",
          "type": "address"
        }
      ],
      "name": "Closed",
      "type": "event"
    },
    {
      "anonymous": false,
      "inputs": [
        {
          "indexed": false,
          "internalType": "address",
          "name": "",
          "type": "address"
        },
        {
          "indexed": false,
          "internalType": "uint256",
          "name": "",
          "type": "uint256"
        }
      ],
      "name": "Opened",
      "type": "event"
    },
    {
      "anonymous": false,
      "inputs": [
        {
          "indexed": true,
          "internalType": "address",
          "name": "previousOwner",
          "type": "address"
        },
        {
          "indexed": true,
          "internalType": "address",
          "name": "newOwner",
          "type": "address"
        }
      ],
      "name": "OwnershipTransferred",
      "type": "event"
    },
    {
      "anonymous": false,
      "inputs": [
        {
          "indexed": false,
          "internalType": "address",
          "name": "",
          "type": "address"
        },
        {
          "indexed": false,
          "internalType": "uint256",
          "name": "",
          "type": "uint256"
        }
      ],
      "name": "Withdrawn",
      "type": "event"
    },
    {
      "inputs": [],
      "name": "challengeChannel",
      "outputs": [],
      "stateMutability": "nonpayable",
      "type": "function"
    },
    {
      "inputs": [],
      "name": "defundChannel",
      "outputs": [],
      "stateMutability": "nonpayable",
      "type": "function"
    },
    {
      "inputs": [],
      "name": "fundChannel",
      "outputs": [],
      "stateMutability": "payable",
      "type": "function"
    },
    {
      "inputs": [],
      "name": "owner",
      "outputs": [
        {
          "internalType": "address",
          "name": "",
          "type": "address"
        }
      ],
      "stateMutability": "view",
      "type": "function"
    },
    {
      "inputs": [],
      "name": "renounceOwnership",
      "outputs": [],
      "stateMutability": "nonpayable",
      "type": "function"
    },
    {
      "inputs": [
        {
          "internalType": "address",
          "name": "channel",
          "type": "address"
        }
      ],
      "name": "timeLeft",
      "outputs": [
        {
          "internalType": "uint256",
          "name": "",
          "type": "uint256"
        }
      ],
      "stateMutability": "view",
      "type": "function"
    },
    {
      "inputs": [
        {
          "internalType": "address",
          "name": "newOwner",
          "type": "address"
        }
      ],
      "name": "transferOwnership",
      "outputs": [],
      "stateMutability": "nonpayable",
      "type": "function"
    },
    {
      "inputs": [
        {
          "components": [
            {
              "internalType": "uint256",
              "name": "updatedBalance",
              "type": "uint256"
            },
            {
              "components": [
                {
                  "internalType": "bytes32",
                  "name": "r",
                  "type": "bytes32"
                },
                {
                  "internalType": "bytes32",
                  "name": "s",
                  "type": "bytes32"
                },
                {
                  "internalType": "uint8",
                  "name": "v",
                  "type": "uint8"
                }
              ],
              "internalType": "struct Streamer.Signature",
              "name": "sig",
              "type": "tuple"
            }
          ],
          "internalType": "struct Streamer.Voucher",
          "name": "voucher",
          "type": "tuple"
        }
      ],
      "name": "withdrawEarnings",
      "outputs": [],
      "stateMutability": "nonpayable",
      "type": "function"
    }
  ],
  "transactionHash": "0x680a8e9859cf6f221067bba9b73279ffcee7d1845bfdc65c2ac2f6db4dd7b051",
  "args": [],
  "numDeployments": 1,
  "solcInputHash": "6d0f70b399bb43adaa7437b301c2dba0",
  "bytecode": "0x608060405234801561001057600080fd5b5061001a3361001f565b61006f565b600080546001600160a01b038381166001600160a01b0319831681178455604051919092169283917f8be0079c531659141344cd1fd0a4f28419497f9722a3daafe3b4186f6b6457e09190a35050565b610a1c8061007e6000396000f3fe60806040526004361061007b5760003560e01c806388a025661161004e57806388a02566146100e75780638da5cb5b14610107578063bc8641b11461012f578063f2fde38b1461014457600080fd5b8063157f83ad146100805780631e400d601461008a578063405c649c1461009f578063715018a6146100d2575b600080fd5b610088610164565b005b34801561009657600080fd5b50610088610274565b3480156100ab57600080fd5b506100bf6100ba36600461093b565b6103f6565b6040519081526020015b60405180910390f35b3480156100de57600080fd5b50610088610469565b3480156100f357600080fd5b50610088610102366004610969565b61047d565b34801561011357600080fd5b506000546040516001600160a01b0390911681526020016100c9565b34801561013b57600080fd5b5061008861075c565b34801561015057600080fd5b5061008861015f36600461093b565b610818565b33600090815260016020526040902054156101c65760405162461bcd60e51b815260206004820152601760248201527f4368616e6e656c20616c7265616479204f70656e65642100000000000000000060448201526064015b60405180910390fd5b33600090815260026020526040902054156102155760405162461bcd60e51b815260206004820152600f60248201526e4368616e6e656c20436c6f7365642160881b60448201526064016101bd565b33600090815260016020526040812080543492906102349084906109a1565b9091555050604080513381523460208201527fc4b27f09c64550fd678a5b3c3a00f454814732e346e0f1c79d0add8f980346de91015b60405180910390a1565b33600090815260026020526040902054158015906102a057503360009081526002602052604090205442115b6102fa5760405162461bcd60e51b815260206004820152602560248201527f646566756e644368616e6e656c3a206e6f206368616c6c656e676520746f206460448201526419599d5b9960da1b60648201526084016101bd565b33600081815260016020526040808220805490839055905190929083908381818185875af1925050503d806000811461034f576040519150601f19603f3d011682016040523d82523d6000602084013e610354565b606091505b50509050806103bf5760405162461bcd60e51b815260206004820152603160248201527f646566756e644368616e6e656c3a2072657665727420696e207472616e7366656044820152707272696e672065746820746f20796f752160781b60648201526084016101bd565b6040513381527f13607bf9d2dd20e1f3a7daf47ab12856f8aad65e6ae7e2c75ace3d0c424a40e89060200160405180910390a15050565b6001600160a01b038116600090815260026020526040812054158061043257506001600160a01b03821660009081526002602052604090205442115b1561043f57506000919050565b6001600160a01b0382166000908152600260205260409020546104639042906109b9565b92915050565b610471610891565b61047b60006108eb565b565b610485610891565b60408051823560208083019190915282518083038201815282840190935282519201919091207f19457468657265756d205369676e6564204d6573736167653a0a3332000000006060830152607c820181905290600090609c0160408051601f1981840301815291905280516020820120909150600060018261050e6080880160608901610980565b604080516000815260208082018084529490945260ff9092168282015291880135606082015290870135608082015260a0016020604051602081039080840390855afa158015610562573d6000803e3d6000fd5b5050604051601f1901519150506001600160a01b0381161580159061059f57506001600160a01b0381166000908152600160205260409020548535105b6105f75760405162461bcd60e51b815260206004820152602360248201527f77697468647261774561726e696e67733a20696e76616c6964207369676e617460448201526275726560e81b60648201526084016101bd565b6001600160a01b03811660009081526001602052604081205461061c908735906109b9565b6001600160a01b0383166000908152600160205260408120805492935088359290919061064a9084906109b9565b9091555050600080546040516001600160a01b039091169083908381818185875af1925050503d806000811461069c576040519150601f19603f3d011682016040523d82523d6000602084013e6106a1565b606091505b50509050806107115760405162461bcd60e51b815260206004820152603660248201527f77697468647261774561726e696e67733a2072657665727420696e207472616e6044820152757366657272696e672065746820746f206f776e65722160501b60648201526084016101bd565b604080516001600160a01b0385168152602081018490527f7084f5476618d8e60b11ef0d7d3f06914655adb8793e28ff7f018d4c76d505d5910160405180910390a150505050505050565b336000908152600160205260409020546107ca5760405162461bcd60e51b815260206004820152602960248201527f4368616c6c656e67654368616e6e656c3a206e6f2062616c616e636520746f206044820152686368616c6c656e676560b81b60648201526084016101bd565b6107d542601e6109a1565b3360008181526002602090815260409182902093909355519081527f98027b38153f995c4b802a5c7e6365bee3addb25af6b29818c0c304684d8052c910161026a565b610820610891565b6001600160a01b0381166108855760405162461bcd60e51b815260206004820152602660248201527f4f776e61626c653a206e6577206f776e657220697320746865207a65726f206160448201526564647265737360d01b60648201526084016101bd565b61088e816108eb565b50565b6000546001600160a01b0316331461047b5760405162461bcd60e51b815260206004820181905260248201527f4f776e61626c653a2063616c6c6572206973206e6f7420746865206f776e657260448201526064016101bd565b600080546001600160a01b038381166001600160a01b0319831681178455604051919092169283917f8be0079c531659141344cd1fd0a4f28419497f9722a3daafe3b4186f6b6457e09190a35050565b60006020828403121561094c578081fd5b81356001600160a01b0381168114610962578182fd5b9392505050565b60006080828403121561097a578081fd5b50919050565b600060208284031215610991578081fd5b813560ff81168114610962578182fd5b600082198211156109b4576109b46109d0565b500190565b6000828210156109cb576109cb6109d0565b500390565b634e487b7160e01b600052601160045260246000fdfea26469706673582212200ecb291f27b39518d18c3619cd2be0c32bd76661d6c51caf5a7f41566c6e188e64736f6c63430008040033",
  "devdoc": {
    "kind": "dev",
    "methods": {
      "owner()": {
        "details": "Returns the address of the current owner."
      },
      "renounceOwnership()": {
        "details": "Leaves the contract without owner. It will not be possible to call `onlyOwner` functions anymore. Can only be called by the current owner. NOTE: Renouncing ownership will leave the contract without an owner, thereby removing any functionality that is only available to the owner."
      },
      "transferOwnership(address)": {
        "details": "Transfers ownership of the contract to a new account (`newOwner`). Can only be called by the current owner."
      }
    },
    "version": 1
  },
  "userdoc": {
    "kind": "user",
    "methods": {},
    "version": 1
  },
  "storageLayout": {
    "storage": [
      {
        "astId": 7,
        "contract": "contracts/Streamer.sol:Streamer",
        "label": "_owner",
        "offset": 0,
        "slot": "0",
        "type": "t_address"
      },
      {
        "astId": 164,
        "contract": "contracts/Streamer.sol:Streamer",
        "label": "balances",
        "offset": 0,
        "slot": "1",
        "type": "t_mapping(t_address,t_uint256)"
      },
      {
        "astId": 168,
        "contract": "contracts/Streamer.sol:Streamer",
        "label": "canCloseAt",
        "offset": 0,
        "slot": "2",
        "type": "t_mapping(t_address,t_uint256)"
      }
    ],
    "types": {
      "t_address": {
        "encoding": "inplace",
        "label": "address",
        "numberOfBytes": "20"
      },
      "t_mapping(t_address,t_uint256)": {
        "encoding": "mapping",
        "key": "t_address",
        "label": "mapping(address => uint256)",
        "numberOfBytes": "32",
        "value": "t_uint256"
      },
      "t_uint256": {
        "encoding": "inplace",
        "label": "uint256",
        "numberOfBytes": "32"
      }
    }
  }
}