{
  "address": "0x9d21a882431a1F9B28AF437DcFB2DBCe5905C5eb",
  "abi": [
    {
      "inputs": [
        {
          "internalType": "address payable",
          "name": "diceGameAddress",
          "type": "address"
        }
      ],
      "stateMutability": "nonpayable",
      "type": "constructor"
    },
    {
      "anonymous": false,
      "inputs": [
        {
          "indexed": true,
          "internalType": "address",
          "name": "previousOwner",
          "type": "address"
        },
        {
          "indexed": true,
          "internalType": "address",
          "name": "newOwner",
          "type": "address"
        }
      ],
      "name": "OwnershipTransferred",
      "type": "event"
    },
    {
      "inputs": [],
      "name": "diceGame",
      "outputs": [
        {
          "internalType": "contract DiceGame",
          "name": "",
          "type": "address"
        }
      ],
      "stateMutability": "view",
      "type": "function"
    },
    {
      "inputs": [],
      "name": "nonce",
      "outputs": [
        {
          "internalType": "uint256",
          "name": "",
          "type": "uint256"
        }
      ],
      "stateMutability": "view",
      "type": "function"
    },
    {
      "inputs": [],
      "name": "owner",
      "outputs": [
        {
          "internalType": "address",
          "name": "",
          "type": "address"
        }
      ],
      "stateMutability": "view",
      "type": "function"
    },
    {
      "inputs": [],
      "name": "renounceOwnership",
      "outputs": [],
      "stateMutability": "nonpayable",
      "type": "function"
    },
    {
      "inputs": [],
      "name": "riggedRoll",
      "outputs": [],
      "stateMutability": "nonpayable",
      "type": "function"
    },
    {
      "inputs": [
        {
          "internalType": "address",
          "name": "newOwner",
          "type": "address"
        }
      ],
      "name": "transferOwnership",
      "outputs": [],
      "stateMutability": "nonpayable",
      "type": "function"
    },
    {
      "inputs": [
        {
          "internalType": "address payable",
          "name": "to",
          "type": "address"
        },
        {
          "internalType": "uint256",
          "name": "amount",
          "type": "uint256"
        }
      ],
      "name": "withdraw",
      "outputs": [],
      "stateMutability": "nonpayable",
      "type": "function"
    },
    {
      "stateMutability": "payable",
      "type": "receive"
    }
  ],
  "transactionHash": "0xe5abb8bddfa0380b51a235ab473b3011f25e21876d7a6f3667ef700665e2668a",
  "args": [
    "0xA252f5E6E9De191A987a28A63Bf65AE9f62DCFAD"
  ],
  "numDeployments": 2,
  "solcInputHash": "bb20222a6b31713f8a9a3761342a9400",
  "bytecode": "0x6080604052600060025534801561001557600080fd5b506040516106e33803806106e3833981016040819052610034916100b2565b61003d33610062565b600180546001600160a01b0319166001600160a01b03929092169190911790556100e2565b600080546001600160a01b038381166001600160a01b0319831681178455604051919092169283917f8be0079c531659141344cd1fd0a4f28419497f9722a3daafe3b4186f6b6457e09190a35050565b6000602082840312156100c457600080fd5b81516001600160a01b03811681146100db57600080fd5b9392505050565b6105f2806100f16000396000f3fe6080604052600436106100745760003560e01c80638e288fd11161004e5780638e288fd1146100e3578063affed0e014610103578063f2fde38b14610127578063f3fef3a31461014757600080fd5b80636b5e97f814610080578063715018a6146100975780638da5cb5b146100ac57600080fd5b3661007b57005b600080fd5b34801561008c57600080fd5b50610095610167565b005b3480156100a357600080fd5b506100956102bf565b3480156100b857600080fd5b506000546001600160a01b03165b6040516001600160a01b0390911681526020015b60405180910390f35b3480156100ef57600080fd5b506001546100c6906001600160a01b031681565b34801561010f57600080fd5b5061011960025481565b6040519081526020016100da565b34801561013357600080fd5b50610095610142366004610502565b6102d3565b34801561015357600080fd5b50610095610162366004610526565b61034c565b66071afd498d00004710156101b65760405162461bcd60e51b815260206004820152601060248201526f3737ba1032b737bab3b41032ba3432b960811b60448201526064015b60405180910390fd5b60006101c3600143610568565b6001546002546040805193406020850181905260609390931b6bffffffffffffffffffffffff1916908401526054830152915060009060740160408051601f19818403018152919052805160209091012090506000610223601083610581565b9050600581111561023357600080fd5b600160009054906101000a90046001600160a01b03166001600160a01b0316637d789dee66071afd498d00006040518263ffffffff1660e01b81526004016000604051808303818588803b15801561028a57600080fd5b505af115801561029e573d6000803e3d6000fd5b50506002805493509150600090506102b5836105a3565b9190505550505050565b6102c7610443565b6102d1600061049d565b565b6102db610443565b6001600160a01b0381166103405760405162461bcd60e51b815260206004820152602660248201527f4f776e61626c653a206e6577206f776e657220697320746865207a65726f206160448201526564647265737360d01b60648201526084016101ad565b6103498161049d565b50565b610354610443565b8047101561039b5760405162461bcd60e51b8152602060048201526014602482015273496e73756666696369656e742062616c616e636560601b60448201526064016101ad565b6000826001600160a01b03168260405160006040518083038185875af1925050503d80600081146103e8576040519150601f19603f3d011682016040523d82523d6000602084013e6103ed565b606091505b505090508061043e5760405162461bcd60e51b815260206004820152601e60248201527f45787465726e616c20636f6e74726163742063616c6c206661696c65642e000060448201526064016101ad565b505050565b6000546001600160a01b031633146102d15760405162461bcd60e51b815260206004820181905260248201527f4f776e61626c653a2063616c6c6572206973206e6f7420746865206f776e657260448201526064016101ad565b600080546001600160a01b038381166001600160a01b0319831681178455604051919092169283917f8be0079c531659141344cd1fd0a4f28419497f9722a3daafe3b4186f6b6457e09190a35050565b6001600160a01b038116811461034957600080fd5b60006020828403121561051457600080fd5b813561051f816104ed565b9392505050565b6000806040838503121561053957600080fd5b8235610544816104ed565b946020939093013593505050565b634e487b7160e01b600052601160045260246000fd5b8181038181111561057b5761057b610552565b92915050565b60008261059e57634e487b7160e01b600052601260045260246000fd5b500690565b6000600182016105b5576105b5610552565b506001019056fea264697066735822122006fd4bbae57fc0f622d6434e89c98b911d02dc96cfa619c4b797fccd3ab06d8064736f6c63430008110033",
  "devdoc": {
    "kind": "dev",
    "methods": {
      "owner()": {
        "details": "Returns the address of the current owner."
      },
      "renounceOwnership()": {
        "details": "Leaves the contract without owner. It will not be possible to call `onlyOwner` functions anymore. Can only be called by the current owner. NOTE: Renouncing ownership will leave the contract without an owner, thereby removing any functionality that is only available to the owner."
      },
      "transferOwnership(address)": {
        "details": "Transfers ownership of the contract to a new account (`newOwner`). Can only be called by the current owner."
      }
    },
    "version": 1
  },
  "userdoc": {
    "kind": "user",
    "methods": {},
    "version": 1
  },
  "storageLayout": {
    "storage": [
      {
        "astId": 7,
        "contract": "contracts/RiggedRoll.sol:RiggedRoll",
        "label": "_owner",
        "offset": 0,
        "slot": "0",
        "type": "t_address"
      },
      {
        "astId": 308,
        "contract": "contracts/RiggedRoll.sol:RiggedRoll",
        "label": "diceGame",
        "offset": 0,
        "slot": "1",
        "type": "t_contract(DiceGame)298"
      },
      {
        "astId": 311,
        "contract": "contracts/RiggedRoll.sol:RiggedRoll",
        "label": "nonce",
        "offset": 0,
        "slot": "2",
        "type": "t_uint256"
      }
    ],
    "types": {
      "t_address": {
        "encoding": "inplace",
        "label": "address",
        "numberOfBytes": "20"
      },
      "t_contract(DiceGame)298": {
        "encoding": "inplace",
        "label": "contract DiceGame",
        "numberOfBytes": "20"
      },
      "t_uint256": {
        "encoding": "inplace",
        "label": "uint256",
        "numberOfBytes": "32"
      }
    }
  }
}